:100000000C9463000C948B000C948B000C948B006C
:100010000C948B000C948B000C948B000C948B0034
:100020000C948B000C948B000C948B000C94FF03AD
:100030000C948B000C948B000C948B000C948B0014
:100040000C94BC040C948B000C9424060C948B0030
:100050000C948B000C948B000C948B000C948B00F4
:100060000C948B000C948B000000000024002700EF
:100070002A0000000000250028002B0000000000DE
:1000800023002600290004040404040404040202DA
:100090000202020203030303030301020408102007
:1000A0004080010204081020010204081020000012
:1000B0000007000201000003040600000000000029
:1000C00000008D00200711241FBECFEFD8E0DEBF57
:1000D000CDBF11E0A0E0B1E0E4E9F6E102C0059097
:1000E0000D92AA3CB107D9F712E0AAECB1E001C029
:1000F0001D92A83AB107E1F710E0C6ECD0E004C0C9
:100100002297FE010E94440BC23CD107C9F70E940E
:100110005A070C94480B0C9400000F938AEC91E062
:1001200069E044E120EA0AE50E94DE0186ED91E003
:100130006AE047E324EB07E80E94DE010F9108958F
:1001400006C06AE070E080E090E00E94120585E958
:1001500092E00E94B206181619069CF785E992E013
:100160000E94DD0680530895EF92FF920F931F9334
:100170000E94A000082F0E94A000E82E0E94A0006C
:1001800094E6099F800111249AE0E99E70011124F0
:100190000E0D800F1F910F91FF90EF90089585E94C
:1001A00092E00E94B20618161906FCF485E992E066
:1001B0000E94DD068335910521F08535910579F49E
:1001C00006C00E94B400682F8AEC91E005C00E942E
:1001D000B400682F86ED91E00E942B0106C085E9EE
:1001E00092E060E071E00E94C2088AEC91E00E9417
:1001F0003C0186ED91E00E943C01089585E992E082
:1002000040E855E260E070E00E9455068AEC91E01B
:100210000E94F90186ED91E00E94F9010895FF9294
:100220000F931F93282FF62E05E912E0C801622FC5
:100230004AE050E00E944908C80163E171E00E9471
:100240009807C8016F2D4AE050E00E94A8081F914E
:100250000F91FF900895FC019081691718F091812A
:10026000961728F4862F692F0E940F010895838125
:100270008583628316820895AF92BF92DF920F93B7
:10028000DF93CF9300D000D000D0CDB7DEB75C01B4
:10029000FC0193818281981709F483C00E940405B0
:1002A000F5012481621B7109810991096F30710583
:1002B0008105910508F475C00681D2800C3011F4D7
:1002C000D38235C0F501638170E0882777FD809582
:1002D000982F0E94C4096B837C838D839E836D2D30
:1002E00070E0F5012581621B7109882777FD8095F3
:1002F000982F0E94C409E02FF0E0EE0FFF1FEE0FD1
:10030000FF1FE857FE4F20813181428153810E94B7
:10031000500A9B01AC016B817C818D819E810E9482
:1003200032090E949609F50163830F5F068385E910
:1003300092E06BE271E00E94980785E992E0F50196
:1003400063814AE050E00E94490885E992E068E450
:1003500071E00E94980785E992E0F50162814AE028
:1003600050E00E94A808C50109969A838983F50187
:10037000638170E00E94110385E992E064E571E019
:100380000E94980789819A810E94BC02BC0185E97C
:1003900092E04AE050E00E94CD080E940405F50179
:1003A000648326960FB6F894DEBF0FBECDBFCF9103
:1003B000DF910F91DF90BF90AF900895CF92DF92C1
:1003C000EF92FF920F931F937C01C62E142FD22E13
:1003D00009960E944702F7011083D18203830283AA
:1003E0000783C0861F910F91FF90EF90DF90CF9011
:1003F0000895EF92FF920F931F93DF93CF9300D056
:100400000F92CDB7DEB77C018E010F5F1F4FC80181
:100410000E944702D7011996F80183E001900D92DE
:100420008150E1F785E992E061E671E00E9498076A
:1004300085E992E0F701608540E050E00E944908BC
:1004400085E992E069E771E00E94980785E992E00A
:10045000F701678140E050E00E94A8088701075F2C
:100460001F4FF7016085C80170E00E94F803F70193
:100470006781C80170E00E9411030F900F900F90E8
:10048000CF91DF911F910F91FF90EF900895FC01A4
:100490008091E2018C3090F480838F5F8093E20141
:1004A000815090E0FC01EE0FFF1FE80FF91FED51A6
:1004B000FE4F88EB9BE09283818308958FEF8083CA
:1004C0000895FC0120812C30B8F58181992787FDA2
:1004D000909548E850E0481B590B440F551F440FB6
:1004E000551F6417750784F08281992787FD9095C1
:1004F00048E552E0481B590B440F551F440F551F48
:10050000641775070CF4AB0142505040CA01AA278A
:1005100097FDA095BA2F880F991FAA1FBB1F4FB731
:10052000F89430E0F901EE0FFF1FE20FF31FED51D9
:10053000FE4F928381834FBF0895FC0180818F3FDE
:1005400019F420E030E016C090E0FC01EE0FFF1F30
:10055000E80FF91FED51FE4F2181328183E0220F18
:10056000331F8A95E1F7B4E036952795BA95E1F700
:100570002E5F3F4FC9010895AF92BF92CF92DF9295
:10058000EF92FF920F931F938C010E949D0200D067
:1005900000D00196AA2797FDA095BA2FF801618196
:1005A000772767FD709528E830E0261B370B220F70
:1005B000331F220F331F442737FD4095542F62818C
:1005C000772767FD7095E8E5EE2EE2E0FE2EE61A4D
:1005D000F70AEE0CFF1CEE0CFF1C0027F7FC009541
:1005E000102F64EBA62EB12CC12CD12CEDB7FEB789
:1005F000A182B282C382D482BC01CD01AA24BB24D1
:1006000065010E94E8080F900F900F900F90CB01AA
:100610001F910F91FF90EF90DF90CF90BF90AF9020
:100620000895AF92BF92CF92DF92EF92FF920F9315
:100630001F93CF93DF93EC019B0182E06032780738
:100640000CF048C077FF03C020E030E005C0653BF8
:10065000710514F024EB30E000D000D0B9018827F8
:1006600077FD8095982F2981332727FD3095E8E87D
:10067000AE2EB12CA21AB30AAA0CBB1CAA0CBB1C2E
:10068000CC24B7FCC094DC2CEA81FF27E7FDF09571
:1006900028E532E02E1B3F0B220F331F220F331FA2
:1006A000442737FD4095542FEDB7FEB721833283A1
:1006B0004383548320E030E040E050E004EBE02E40
:1006C000F12C012D112D0E94E8089B010F900F9035
:1006D0000F900F90CE01B9010E946102DF91CF917E
:1006E0001F910F91FF90EF90DF90CF90BF90AF9050
:1006F0000895CF92DF92EF92FF921F93CF93DF93F3
:10070000EC01162F7A01690188818C3008F064C0F1
:10071000862F61E00E94A605888190E0FC01EE0F23
:10072000FF1FE80FF91FED51FE4F1F738081807C82
:10073000812B808380E292E08E199F0964E070E053
:100740000E94DE0A698380E699E08C199D0964E0C5
:1007500070E00E94DE0A6A83A8818A2F6CE00E9402
:10076000D20A682F70E0AB01440F551F460F571F88
:10077000440F551F440F551F20E030E0C901840F7E
:10078000951FFC01EE0FFF1FE80FF91FED51FE4F03
:10079000808186FD15C02F5F3F4F2C30310571F7EA
:1007A00024C01092800082E0809381001092850026
:1007B00010928400B19A80916F00826080936F00E4
:1007C0008A2F90E0FC01EE0FFF1FE80FF91FED519B
:1007D000FE4F8081806480838881DF91CF911F915B
:1007E000FF90EF90DF90CF900895672BD1F2E8CF84
:1007F00040E252E020E639E00E94790308951F921A
:100800000F920FB60F9211242F933F934F935F9344
:100810006F937F938F939F93AF93BF93EF93FF93C8
:100820008091070287FF05C0109285001092840016
:100830002BC020910702332727FD30958091E201DC
:1008400090E02817390704F580910702992787FD62
:100850009095FC01EE0FFF1FE80FF91FED51FE4FC1
:10086000808186FF11C080910702992787FD9095AE
:10087000FC01EE0FFF1FE80FF91FED51FE4F8081C5
:100880008F7360E00E94CC05809107028F5F809398
:10089000070220910702332727FD30958091E2015E
:1008A00090E0281739070CF04EC0809107028C3079
:1008B0000CF049C02091840030918500809107029E
:1008C000992787FD9095FC01EE0FFF1FE80FF91F98
:1008D000ED51FE4F81819281280F391F309389009D
:1008E0002093880080910702992787FD9095FC014D
:1008F000EE0FFF1FE80FF91FED51FE4F808186FFBD
:100900002AC080910702992787FD9095FC01EE0F80
:10091000FF1FE80FF91FED51FE4F80818F7361E0DB
:100920000E94CC0518C080E49CE905C08091840039
:1009300090918500049690938900809388008FEFB2
:100940008093070208C080918400909185008454B0
:100950009C4948F3EBCFFF91EF91BF91AF919F91ED
:100960008F917F916F915F914F913F912F910F9058
:100970000FBE0F901F9018951F920F920FB60F92F7
:1009800011242F933F938F939F93AF93BF938091A5
:100990000C0290910D02A0910E02B0910F023091C5
:1009A00010020196A11DB11D232F2D5F2D3720F0C0
:1009B0002D570196A11DB11D2093100280930C02AA
:1009C00090930D02A0930E02B0930F028091080243
:1009D00090910902A0910A02B0910B020196A11D0B
:1009E000B11D8093080290930902A0930A02B0936C
:1009F0000B02BF91AF919F918F913F912F910F90DB
:100A00000FBE0F901F9018958FB7F89420910C028D
:100A100030910D0240910E0250910F028FBFB9012B
:100A2000CA0108959B01AC017FB7F8948091080238
:100A300090910902A0910A02B0910B0266B5A89BA1
:100A400005C06F3F19F00196A11DB11D7FBFBA2FE0
:100A5000A92F982F8827860F911DA11DB11D62E037
:100A6000880F991FAA1FBB1F6A95D1F7BC012DC023
:100A7000FFB7F8948091080290910902A0910A02B0
:100A8000B0910B02E6B5A89B05C0EF3F19F00196A7
:100A9000A11DB11DFFBFBA2FA92F982F88278E0F38
:100AA000911DA11DB11DE2E0880F991FAA1FBB1F58
:100AB000EA95D1F7861B970B885E9340C8F22150C8
:100AC00030404040504068517C4F21153105410570
:100AD000510571F60895789484B5826084BD84B51B
:100AE000816084BD85B5826085BD85B5816085BD29
:100AF000EEE6F0E0808181608083E1E8F0E0108242
:100B0000808182608083808181608083E0E8F0E082
:100B1000808181608083E1EBF0E08081846080836C
:100B2000E0EBF0E0808181608083EAE7F0E08081A3
:100B30008460808380818260808380818160808303
:100B40008081806880831092C1000895482F50E012
:100B5000CA0186569F4FFC0124914A575F4FFA0104
:100B600084918823C1F0E82FF0E0EE0FFF1FE859D1
:100B7000FF4FA591B491662341F49FB7F8948C91EF
:100B8000209582238C939FBF08959FB7F8948C91F2
:100B9000822B8C939FBF0895482F50E0CA01825545
:100BA0009F4FFC012491CA0186569F4FFC0134914E
:100BB0004A575F4FFA019491992309F444C02223C4
:100BC00051F1233071F0243028F42130A1F022308B
:100BD00011F514C02630B1F02730C1F02430D9F41B
:100BE00004C0809180008F7703C0809180008F7D4A
:100BF0008093800010C084B58F7702C084B58F7D4C
:100C000084BD09C08091B0008F7703C08091B0008F
:100C10008F7D8093B000E92FF0E0EE0FFF1FEE58BC
:100C2000FF4FA591B491662341F49FB7F8948C913E
:100C3000309583238C939FBF08959FB7F8948C9130
:100C4000832B8C939FBF08951F920F920FB60F9224
:100C500011242F933F934F938F939F93EF93FF9381
:100C60004091C600E0919102F091920231969F016D
:100C70002F773070319780919302909194022817CA
:100C8000390739F0EF5EFD4F408330939202209395
:100C90009102FF91EF919F918F914F913F912F91F1
:100CA0000F900FBE0F901F901895CF93DF93EC011C
:100CB0009A01AB01E885F985203081EE380780E0A4
:100CC000480780E0580709F449C081E090E00A88AD
:100CD00002C0880F991F0A94E2F7808360E079E0F0
:100CE0008DE390E00E94130B215030404040504073
:100CF000CA01B90122E030E040E050E00E94130B4D
:100D0000EC81FD813083EE81FF812083EA85FB85C4
:100D1000208141E050E0CA010E8402C0880F991F73
:100D20000A94E2F7282B2083EA85FB852081CA01FB
:100D30000F8402C0880F991F0A94E2F7282B2083A2
:100D4000EA85FB858081088802C0440F551F0A94FC
:100D5000E2F7842B8083DF91CF910895108220E108
:100D600030E0CECFDC011296ED91FC911397E05864
:100D7000FF4F2191319180819181281B390B2F7771
:100D80003070C9010895DC011296ED91FC91139722
:100D9000EE57FF4F2081318192918291E058F040CF
:100DA0008217930719F42FEF3FEF05C0E20FF31FEF
:100DB0008081282F30E0C9010895DC011296ED9161
:100DC000FC911397DF01AE57BF4F2D913C911197C6
:100DD000E058FF4F80819181E058F04082179307DF
:100DE00019F42FEF3FEF0BC0E20FF31F80812F5F4D
:100DF0003F4F2F7730702D933C93282F30E0C9015F
:100E00000895DC011296ED91FC911397EE57FF4F78
:100E100080819181929382930895FC01A085B18590
:100E200021898C9190E0022E02C0959587950A94B5
:100E3000E2F780FFF6CF0484F585E02D6083089506
:100E40008CEB91E0909396028093950281E192E081
:100E5000909398028093970285EC90E090939A0289
:100E60008093990284EC90E090939C0280939B0283
:100E700080EC90E090939E0280939D0281EC90E044
:100E80009093A00280939F0286EC90E09093A20240
:100E90008093A10284E08093A30283E08093A40264
:100EA00087E08093A50285E08093A60281E080938D
:100EB000A70208950E946B050E94FE000E94CF00C9
:100EC000FDCF0F931F93CF93DF938C01EB0109C0EC
:100ED0002196D801ED91FC910190F081E02DC8019F
:100EE000099568816623A1F7DF91CF911F910F913A
:100EF0000895EF92FF920F931F93CF93DF938C018E
:100F00007B01EA010CC0D7016D917D01D801ED9103
:100F1000FC910190F081E02DC8010995219720975F
:100F200091F7DF91CF911F910F91FF90EF9008956E
:100F3000DC01ED91FC910280F381E02D099508958B
:100F40002F923F924F925F926F927F928F929F92D9
:100F5000AF92BF92CF92DF92EF92FF920F931F93C7
:100F6000DF93CF93CDB7DEB7A0970FB6F894DEBF6F
:100F70000FBECDBF1C016A017B0141155105610502
:100F8000710549F440E350E060E070E020E030E0BB
:100F90000E945B0856C0882499245401422E55248F
:100FA0006624772401E010E00C0F1D1F080D191DA9
:100FB000C701B601A30192010E94F10AF801608302
:100FC0000894811C911CA11CB11CC701B601A3018E
:100FD00092010E94F10AC901DA016C017D01C1147C
:100FE000D104E104F104F1F681E0E82EF12CEC0EDD
:100FF000FD1EE80CF91C3E010894611C711CD50112
:10100000C4010197A109B1096C01C818D90816C01B
:10101000F601EE0DFF1D40814A3010F4405D01C025
:10102000495C552747FD5095652F752FC10120E07C
:1010300030E00E945B080894E108F1086E147F0418
:1010400039F7A0960FB6F894DEBF0FBECDBFCF9193
:10105000DF911F910F91FF90EF90DF90CF90BF90A5
:10106000AF909F908F907F906F905F904F903F9048
:101070002F900895DC012115310541F4ED91FC918B
:101080000190F081E02D642F099508950E94A0073A
:101090000895EF92FF920F931F939A01E62EFF247B
:1010A00000E010E0B801A7010E943A081F910F91DB
:1010B000FF90EF900895EF92FF920F931F93CF93BD
:1010C000DF93EC017A018B012115310541F4E881B0
:1010D000F9810190F081E02D642F09951BC02A3021
:1010E0003105B1F477FF10C04DE250E060E070E0F0
:1010F00020E030E00E945B0810950095F094E094A9
:10110000E11CF11C011D111DCE01B801A7012AE04F
:101110000E94A007DF91CF911F910F91FF90EF9058
:1011200008950F931F938C014DE050E060E070E054
:1011300020E030E00E945B08C8014AE050E060E037
:1011400070E020E030E00E945B081F910F9108954D
:10115000CF92DF92EF92FF920F931F938C019A012F
:10116000C62EDD24EE24FF24B701A6010E943A0812
:10117000C8010E9491081F910F91FF90EF90DF909E
:10118000CF9008950F931F938C010E949807C80178
:101190000E9491081F910F910895CF92DF92EF92D4
:1011A000FF920F931F938C016B019A01EE24D7FCE1
:1011B000E094FE2CB701A6010E945B08C8010E94C2
:1011C00091081F910F91FF90EF90DF90CF900895BD
:1011D0002F923F924F925F926F927F928F929F9247
:1011E000AF92BF92CF92DF92EF92FF920F931F9335
:1011F000DF93CF93CDB7DEB73B014C0119012A0134
:101200006D897E898F89988D6A197B098C099D0962
:10121000621A730A840A950AA40193010E94B30A10
:10122000E218F30804091509A80197010E94130B9D
:101230002A0D3B1D4C1D5D1DB901CA01CF91DF91E7
:101240001F910F91FF90EF90DF90CF90BF90AF90E4
:101250009F908F907F906F905F904F903F902F90D6
:1012600008955058BB27AA270ED0E0C0D1D030F047
:10127000D6D020F031F49F3F11F41EF4C6C00EF416
:10128000E095E7FBBCC0E92FE2D080F3BA17620714
:1012900073078407950718F071F49EF5FAC00EF4F1
:1012A000E0950B2EBA2FA02D0B01B90190010C0176
:1012B000CA01A0011124FF27591B99F0593F50F48E
:1012C000503E68F11A16F040A22F232F342F4427E6
:1012D000585FF3CF469537952795A795F0405395DE
:1012E000C9F77EF41F16BA0B620B730B840BBAF0AE
:1012F0009150A1F0FF0FBB1F661F771F881FC2F719
:101300000EC0BA0F621F731F841F48F4879577952C
:101310006795B795F7959E3F08F0B3CF9395880FE3
:1013200008F09927EE0F97958795089598D088F043
:101330009F5790F0B92F9927B751A0F0D1F0660FC1
:10134000771F881F991F1AF0BA95C9F712C0B130DC
:1013500081F09FD0B1E008959CC0672F782F882737
:10136000B85F39F0B93FCCF3869577956795B3951B
:10137000D9F73EF490958095709561957F4F8F4F8A
:101380009F4F0895E89409C097FB3EF4909580958F
:10139000709561957F4F8F4F9F4F9923A9F0F92F3B
:1013A00096E9BB279395F695879577956795B795B9
:1013B000F111F8CFFAF4BB0F11F460FF1BC06F5F9F
:1013C0007F4F8F4F9F4F16C0882311F096E911C0B1
:1013D000772321F09EE8872F762F05C0662371F0D2
:1013E00096E8862F70E060E02AF09A95660F771FE6
:1013F000881FDAF7880F9695879597F9089597F9DA
:101400009F6780E870E060E008959FEF80EC0895AA
:1014100000240A94161617061806090608950024D3
:101420000A9412161306140605060895092E03944D
:10143000000C11F4882352F0BB0F40F4BF2B11F4C1
:1014400060FF04C06F5F7F4F8F4F9F4F089557FD20
:101450009058440F551F59F05F3F71F04795880F22
:1014600097FB991F61F09F3F79F0879508951216B9
:1014700013061406551FF2CF4695F1DF08C0161665
:1014800017061806991FF1CF869571056105089416
:101490000895E894BB2766277727CB0197F908952D
:1014A0000BD0C4CFB5DF28F0BADF18F0952309F0D0
:1014B000A6CFABCF1124EECFCADFA0F3959FD1F317
:1014C000950F50E0551F629FF001729FBB27F00DF2
:1014D000B11D639FAA27F00DB11DAA1F649F662747
:1014E000B00DA11D661F829F2227B00DA11D621F96
:1014F000739FB00DA11D621F839FA00D611D221F50
:10150000749F3327A00D611D231F849F600D211D33
:10151000822F762F6A2F11249F5750408AF0E1F0D6
:1015200088234AF0EE0FFF1FBB1F661F771F881F1F
:1015300091505040A9F79E3F510570F060CFAACF5F
:101540005F3FECF3983EDCF3869577956795B7950A
:10155000F795E7959F5FC1F7FE2B880F911D969534
:10156000879597F90895629FD001739FF001829F3C
:10157000E00DF11D649FE00DF11D929FF00D839F22
:10158000F00D749FF00D659FF00D9927729FB00DBF
:10159000E11DF91F639FB00DE11DF91FBD01CF01D2
:1015A00011240895991B79E004C0991F961708F03B
:1015B000961B881F7A95C9F78095089597FB092E89
:1015C00007260AD077FD04D049D006D000201AF4AF
:1015D000709561957F4F0895F6F7909581959F4F8F
:1015E0000895A1E21A2EAA1BBB1BFD010DC0AA1F64
:1015F000BB1FEE1FFF1FA217B307E407F50720F07C
:10160000A21BB30BE40BF50B661F771F881F991FF6
:101610001A9469F760957095809590959B01AC013F
:10162000BD01CF01089597FB092E05260ED057FD69
:1016300004D0D7DF0AD0001C38F45095409530957F
:1016400021953F4F4F4F5F4F0895F6F79095809546
:10165000709561957F4F8F4F9F4F0895AA1BBB1BBD
:1016600051E107C0AA1FBB1FA617B70710F0A61BA2
:10167000B70B881F991F5A95A9F780959095BC01C3
:10168000CD010895EE0FFF1F0590F491E02D099410
:04169000F894FFCFFC
:10169400556E7265636F676E697A65642076616CF6
:1016A4007565002076616C75652065786365656491
:1016B40073206C696D6974733A20004E65787420E8
:1016C400696E7465726D65646961746520706F73A9
:1016D4006974696F6E3A200020746F2072656163CB
:1016E400683A20004C6173742077726974653A20FB
:1016F40000417474616368696E6720736572766F04
:1017040020746F2070696E200020616E64207772EF
:101714006974696E673A20000AD7233C0AD7A33C50
:101724000AD7233D0AD7A33D0AD7233E5C8F423E06
:101734005C8F423E0AD7233E0AD7A33D0AD7233DF6
:101744000AD7A33C0AD7233C000000000D07610719
:0A1754007907B206DD06C30601079F
:00000001FF
